{
  "_format": "hh-sol-artifact-1",
  "contractName": "AttestationMinter",
  "sourceName": "contracts/AttestationMinter.sol",
  "abi": [
    {
      "inputs": [
        {
          "internalType": "address",
          "name": "_verifier",
          "type": "address"
        }
      ],
      "stateMutability": "nonpayable",
      "type": "constructor"
    },
    {
      "anonymous": false,
      "inputs": [
        {
          "indexed": true,
          "internalType": "address",
          "name": "owner",
          "type": "address"
        },
        {
          "indexed": true,
          "internalType": "address",
          "name": "approved",
          "type": "address"
        },
        {
          "indexed": true,
          "internalType": "uint256",
          "name": "tokenId",
          "type": "uint256"
        }
      ],
      "name": "Approval",
      "type": "event"
    },
    {
      "anonymous": false,
      "inputs": [
        {
          "indexed": true,
          "internalType": "address",
          "name": "owner",
          "type": "address"
        },
        {
          "indexed": true,
          "internalType": "address",
          "name": "operator",
          "type": "address"
        },
        {
          "indexed": false,
          "internalType": "bool",
          "name": "approved",
          "type": "bool"
        }
      ],
      "name": "ApprovalForAll",
      "type": "event"
    },
    {
      "anonymous": false,
      "inputs": [
        {
          "indexed": true,
          "internalType": "address",
          "name": "from",
          "type": "address"
        },
        {
          "indexed": true,
          "internalType": "address",
          "name": "to",
          "type": "address"
        },
        {
          "indexed": true,
          "internalType": "uint256",
          "name": "tokenId",
          "type": "uint256"
        }
      ],
      "name": "Transfer",
      "type": "event"
    },
    {
      "inputs": [
        {
          "internalType": "address",
          "name": "to",
          "type": "address"
        },
        {
          "internalType": "uint256",
          "name": "tokenId",
          "type": "uint256"
        }
      ],
      "name": "approve",
      "outputs": [],
      "stateMutability": "nonpayable",
      "type": "function"
    },
    {
      "inputs": [
        {
          "internalType": "address",
          "name": "owner",
          "type": "address"
        }
      ],
      "name": "balanceOf",
      "outputs": [
        {
          "internalType": "uint256",
          "name": "",
          "type": "uint256"
        }
      ],
      "stateMutability": "view",
      "type": "function"
    },
    {
      "inputs": [
        {
          "internalType": "uint256",
          "name": "tokenId",
          "type": "uint256"
        }
      ],
      "name": "getApproved",
      "outputs": [
        {
          "internalType": "address",
          "name": "",
          "type": "address"
        }
      ],
      "stateMutability": "view",
      "type": "function"
    },
    {
      "inputs": [
        {
          "internalType": "address",
          "name": "owner",
          "type": "address"
        },
        {
          "internalType": "address",
          "name": "operator",
          "type": "address"
        }
      ],
      "name": "isApprovedForAll",
      "outputs": [
        {
          "internalType": "bool",
          "name": "",
          "type": "bool"
        }
      ],
      "stateMutability": "view",
      "type": "function"
    },
    {
      "inputs": [
        {
          "internalType": "uint256[2]",
          "name": "_a",
          "type": "uint256[2]"
        },
        {
          "internalType": "uint256[2][2]",
          "name": "_b",
          "type": "uint256[2][2]"
        },
        {
          "internalType": "uint256[2]",
          "name": "_c",
          "type": "uint256[2]"
        },
        {
          "internalType": "uint256",
          "name": "_merkleRoot",
          "type": "uint256"
        },
        {
          "internalType": "uint256",
          "name": "_nullifier",
          "type": "uint256"
        }
      ],
      "name": "mint",
      "outputs": [],
      "stateMutability": "nonpayable",
      "type": "function"
    },
    {
      "inputs": [],
      "name": "name",
      "outputs": [
        {
          "internalType": "string",
          "name": "",
          "type": "string"
        }
      ],
      "stateMutability": "view",
      "type": "function"
    },
    {
      "inputs": [
        {
          "internalType": "uint256",
          "name": "",
          "type": "uint256"
        }
      ],
      "name": "nullifiers",
      "outputs": [
        {
          "internalType": "bool",
          "name": "",
          "type": "bool"
        }
      ],
      "stateMutability": "view",
      "type": "function"
    },
    {
      "inputs": [
        {
          "internalType": "uint256",
          "name": "tokenId",
          "type": "uint256"
        }
      ],
      "name": "ownerOf",
      "outputs": [
        {
          "internalType": "address",
          "name": "",
          "type": "address"
        }
      ],
      "stateMutability": "view",
      "type": "function"
    },
    {
      "inputs": [
        {
          "internalType": "address",
          "name": "from",
          "type": "address"
        },
        {
          "internalType": "address",
          "name": "to",
          "type": "address"
        },
        {
          "internalType": "uint256",
          "name": "tokenId",
          "type": "uint256"
        }
      ],
      "name": "safeTransferFrom",
      "outputs": [],
      "stateMutability": "nonpayable",
      "type": "function"
    },
    {
      "inputs": [
        {
          "internalType": "address",
          "name": "from",
          "type": "address"
        },
        {
          "internalType": "address",
          "name": "to",
          "type": "address"
        },
        {
          "internalType": "uint256",
          "name": "tokenId",
          "type": "uint256"
        },
        {
          "internalType": "bytes",
          "name": "_data",
          "type": "bytes"
        }
      ],
      "name": "safeTransferFrom",
      "outputs": [],
      "stateMutability": "nonpayable",
      "type": "function"
    },
    {
      "inputs": [
        {
          "internalType": "address",
          "name": "operator",
          "type": "address"
        },
        {
          "internalType": "bool",
          "name": "approved",
          "type": "bool"
        }
      ],
      "name": "setApprovalForAll",
      "outputs": [],
      "stateMutability": "nonpayable",
      "type": "function"
    },
    {
      "inputs": [
        {
          "internalType": "bytes4",
          "name": "interfaceId",
          "type": "bytes4"
        }
      ],
      "name": "supportsInterface",
      "outputs": [
        {
          "internalType": "bool",
          "name": "",
          "type": "bool"
        }
      ],
      "stateMutability": "view",
      "type": "function"
    },
    {
      "inputs": [],
      "name": "symbol",
      "outputs": [
        {
          "internalType": "string",
          "name": "",
          "type": "string"
        }
      ],
      "stateMutability": "view",
      "type": "function"
    },
    {
      "inputs": [
        {
          "internalType": "uint256",
          "name": "tokenId",
          "type": "uint256"
        }
      ],
      "name": "tokenURI",
      "outputs": [
        {
          "internalType": "string",
          "name": "",
          "type": "string"
        }
      ],
      "stateMutability": "view",
      "type": "function"
    },
    {
      "inputs": [
        {
          "internalType": "address",
          "name": "from",
          "type": "address"
        },
        {
          "internalType": "address",
          "name": "to",
          "type": "address"
        },
        {
          "internalType": "uint256",
          "name": "tokenId",
          "type": "uint256"
        }
      ],
      "name": "transferFrom",
      "outputs": [],
      "stateMutability": "nonpayable",
      "type": "function"
    },
    {
      "inputs": [],
      "name": "verifier",
      "outputs": [
        {
          "internalType": "contract IVerifier",
          "name": "",
          "type": "address"
        }
      ],
      "stateMutability": "view",
      "type": "function"
    }
  ],
  "bytecode": "0x60806040523480156200001157600080fd5b5060405162002cff38038062002cff833981810160405281019062000037919062000239565b6040518060400160405280600581526020017f50726f6f660000000000000000000000000000000000000000000000000000008152506040518060400160405280600581526020017f50524f4f460000000000000000000000000000000000000000000000000000008152508160009080519060200190620000bb9291906200011f565b508060019080519060200190620000d49291906200011f565b50505080600860006101000a81548173ffffffffffffffffffffffffffffffffffffffff021916908373ffffffffffffffffffffffffffffffffffffffff16021790555050620002d0565b8280546200012d906200029a565b90600052602060002090601f0160209004810192826200015157600085556200019d565b82601f106200016c57805160ff19168380011785556200019d565b828001600101855582156200019d579182015b828111156200019c5782518255916020019190600101906200017f565b5b509050620001ac9190620001b0565b5090565b5b80821115620001cb576000816000905550600101620001b1565b5090565b600080fd5b600073ffffffffffffffffffffffffffffffffffffffff82169050919050565b60006200020182620001d4565b9050919050565b6200021381620001f4565b81146200021f57600080fd5b50565b600081519050620002338162000208565b92915050565b600060208284031215620002525762000251620001cf565b5b6000620002628482850162000222565b91505092915050565b7f4e487b7100000000000000000000000000000000000000000000000000000000600052602260045260246000fd5b60006002820490506001821680620002b357607f821691505b60208210811415620002ca57620002c96200026b565b5b50919050565b612a1f80620002e06000396000f3fe608060405234801561001057600080fd5b50600436106101005760003560e01c806370a0823111610097578063b88d4fde11610066578063b88d4fde146102ab578063c87b56dd146102c7578063d21e82ab146102f7578063e985e9c51461032757610100565b806370a082311461022557806395d89b4114610255578063a22cb46514610273578063aee456191461028f57610100565b806323b872dd116100d357806323b872dd1461019f5780632b7ac3f3146101bb57806342842e0e146101d95780636352211e146101f557610100565b806301ffc9a71461010557806306fdde0314610135578063081812fc14610153578063095ea7b314610183575b600080fd5b61011f600480360381019061011a9190611743565b610357565b60405161012c919061178b565b60405180910390f35b61013d610439565b60405161014a919061183f565b60405180910390f35b61016d60048036038101906101689190611897565b6104cb565b60405161017a9190611905565b60405180910390f35b61019d6004803603810190610198919061194c565b610550565b005b6101b960048036038101906101b4919061198c565b610668565b005b6101c36106c8565b6040516101d09190611a3e565b60405180910390f35b6101f360048036038101906101ee919061198c565b6106ee565b005b61020f600480360381019061020a9190611897565b61070e565b60405161021c9190611905565b60405180910390f35b61023f600480360381019061023a9190611a59565b6107c0565b60405161024c9190611a95565b60405180910390f35b61025d610878565b60405161026a919061183f565b60405180910390f35b61028d60048036038101906102889190611adc565b61090a565b005b6102a960048036038101906102a49190611d03565b610920565b005b6102c560048036038101906102c09190611e36565b610976565b005b6102e160048036038101906102dc9190611897565b6109d8565b6040516102ee919061183f565b60405180910390f35b610311600480360381019061030c9190611897565b610a7f565b60405161031e919061178b565b60405180910390f35b610341600480360381019061033c9190611eb9565b610a9f565b60405161034e919061178b565b60405180910390f35b60007f80ac58cd000000000000000000000000000000000000000000000000000000007bffffffffffffffffffffffffffffffffffffffffffffffffffffffff1916827bffffffffffffffffffffffffffffffffffffffffffffffffffffffff1916148061042257507f5b5e139f000000000000000000000000000000000000000000000000000000007bffffffffffffffffffffffffffffffffffffffffffffffffffffffff1916827bffffffffffffffffffffffffffffffffffffffffffffffffffffffff1916145b80610432575061043182610b33565b5b9050919050565b60606000805461044890611f28565b80601f016020809104026020016040519081016040528092919081815260200182805461047490611f28565b80156104c15780601f10610496576101008083540402835291602001916104c1565b820191906000526020600020905b8154815290600101906020018083116104a457829003601f168201915b5050505050905090565b60006104d682610b9d565b610515576040517f08c379a000000000000000000000000000000000000000000000000000000000815260040161050c90611fcc565b60405180910390fd5b6004600083815260200190815260200160002060009054906101000a900473ffffffffffffffffffffffffffffffffffffffff169050919050565b600061055b8261070e565b90508073ffffffffffffffffffffffffffffffffffffffff168373ffffffffffffffffffffffffffffffffffffffff1614156105cc576040517f08c379a00000000000000000000000000000000000000000000000000000000081526004016105c39061205e565b60405180910390fd5b8073ffffffffffffffffffffffffffffffffffffffff166105eb610c09565b73ffffffffffffffffffffffffffffffffffffffff16148061061a575061061981610614610c09565b610a9f565b5b610659576040517f08c379a0000000000000000000000000000000000000000000000000000000008152600401610650906120f0565b60405180910390fd5b6106638383610c11565b505050565b610679610673610c09565b82610cca565b6106b8576040517f08c379a00000000000000000000000000000000000000000000000000000000081526004016106af90612182565b60405180910390fd5b6106c3838383610da8565b505050565b600860009054906101000a900473ffffffffffffffffffffffffffffffffffffffff1681565b61070983838360405180602001604052806000815250610976565b505050565b6000806002600084815260200190815260200160002060009054906101000a900473ffffffffffffffffffffffffffffffffffffffff169050600073ffffffffffffffffffffffffffffffffffffffff168173ffffffffffffffffffffffffffffffffffffffff1614156107b7576040517f08c379a00000000000000000000000000000000000000000000000000000000081526004016107ae90612214565b60405180910390fd5b80915050919050565b60008073ffffffffffffffffffffffffffffffffffffffff168273ffffffffffffffffffffffffffffffffffffffff161415610831576040517f08c379a0000000000000000000000000000000000000000000000000000000008152600401610828906122a6565b60405180910390fd5b600360008373ffffffffffffffffffffffffffffffffffffffff1673ffffffffffffffffffffffffffffffffffffffff168152602001908152602001600020549050919050565b60606001805461088790611f28565b80601f01602080910402602001604051908101604052809291908181526020018280546108b390611f28565b80156109005780601f106108d557610100808354040283529160200191610900565b820191906000526020600020905b8154815290600101906020018083116108e357829003601f168201915b5050505050905090565b61091c610915610c09565b8383611004565b5050565b60016007600083815260200190815260200160002060006101000a81548160ff0219169083151502179055506109566006611171565b60006109626006611187565b905061096e3382611195565b505050505050565b610987610981610c09565b83610cca565b6109c6576040517f08c379a00000000000000000000000000000000000000000000000000000000081526004016109bd90612182565b60405180910390fd5b6109d284848484611363565b50505050565b60606109e382610b9d565b610a22576040517f08c379a0000000000000000000000000000000000000000000000000000000008152600401610a1990612338565b60405180910390fd5b6000610a2c6113bf565b90506000815111610a4c5760405180602001604052806000815250610a77565b80610a56846113d6565b604051602001610a67929190612394565b6040516020818303038152906040525b915050919050565b60076020528060005260406000206000915054906101000a900460ff1681565b6000600560008473ffffffffffffffffffffffffffffffffffffffff1673ffffffffffffffffffffffffffffffffffffffff16815260200190815260200160002060008373ffffffffffffffffffffffffffffffffffffffff1673ffffffffffffffffffffffffffffffffffffffff16815260200190815260200160002060009054906101000a900460ff16905092915050565b60007f01ffc9a7000000000000000000000000000000000000000000000000000000007bffffffffffffffffffffffffffffffffffffffffffffffffffffffff1916827bffffffffffffffffffffffffffffffffffffffffffffffffffffffff1916149050919050565b60008073ffffffffffffffffffffffffffffffffffffffff166002600084815260200190815260200160002060009054906101000a900473ffffffffffffffffffffffffffffffffffffffff1673ffffffffffffffffffffffffffffffffffffffff1614159050919050565b600033905090565b816004600083815260200190815260200160002060006101000a81548173ffffffffffffffffffffffffffffffffffffffff021916908373ffffffffffffffffffffffffffffffffffffffff160217905550808273ffffffffffffffffffffffffffffffffffffffff16610c848361070e565b73ffffffffffffffffffffffffffffffffffffffff167f8c5be1e5ebec7d5bd14f71427d1e84f3dd0314c0f7b2291e5b200ac8c7c3b92560405160405180910390a45050565b6000610cd582610b9d565b610d14576040517f08c379a0000000000000000000000000000000000000000000000000000000008152600401610d0b9061242a565b60405180910390fd5b6000610d1f8361070e565b90508073ffffffffffffffffffffffffffffffffffffffff168473ffffffffffffffffffffffffffffffffffffffff161480610d8e57508373ffffffffffffffffffffffffffffffffffffffff16610d76846104cb565b73ffffffffffffffffffffffffffffffffffffffff16145b80610d9f5750610d9e8185610a9f565b5b91505092915050565b8273ffffffffffffffffffffffffffffffffffffffff16610dc88261070e565b73ffffffffffffffffffffffffffffffffffffffff1614610e1e576040517f08c379a0000000000000000000000000000000000000000000000000000000008152600401610e15906124bc565b60405180910390fd5b600073ffffffffffffffffffffffffffffffffffffffff168273ffffffffffffffffffffffffffffffffffffffff161415610e8e576040517f08c379a0000000000000000000000000000000000000000000000000000000008152600401610e859061254e565b60405180910390fd5b610e99838383611537565b610ea4600082610c11565b6001600360008573ffffffffffffffffffffffffffffffffffffffff1673ffffffffffffffffffffffffffffffffffffffff1681526020019081526020016000206000828254610ef4919061259d565b925050819055506001600360008473ffffffffffffffffffffffffffffffffffffffff1673ffffffffffffffffffffffffffffffffffffffff1681526020019081526020016000206000828254610f4b91906125d1565b92505081905550816002600083815260200190815260200160002060006101000a81548173ffffffffffffffffffffffffffffffffffffffff021916908373ffffffffffffffffffffffffffffffffffffffff160217905550808273ffffffffffffffffffffffffffffffffffffffff168473ffffffffffffffffffffffffffffffffffffffff167fddf252ad1be2c89b69c2b068fc378daa952ba7f163c4a11628f55a4df523b3ef60405160405180910390a4505050565b8173ffffffffffffffffffffffffffffffffffffffff168373ffffffffffffffffffffffffffffffffffffffff161415611073576040517f08c379a000000000000000000000000000000000000000000000000000000000815260040161106a90612673565b60405180910390fd5b80600560008573ffffffffffffffffffffffffffffffffffffffff1673ffffffffffffffffffffffffffffffffffffffff16815260200190815260200160002060008473ffffffffffffffffffffffffffffffffffffffff1673ffffffffffffffffffffffffffffffffffffffff16815260200190815260200160002060006101000a81548160ff0219169083151502179055508173ffffffffffffffffffffffffffffffffffffffff168373ffffffffffffffffffffffffffffffffffffffff167f17307eab39ab6107e8899845ad3d59bd9653f200f220920489ca2b5937696c3183604051611164919061178b565b60405180910390a3505050565b6001816000016000828254019250508190555050565b600081600001549050919050565b600073ffffffffffffffffffffffffffffffffffffffff168273ffffffffffffffffffffffffffffffffffffffff161415611205576040517f08c379a00000000000000000000000000000000000000000000000000000000081526004016111fc906126df565b60405180910390fd5b61120e81610b9d565b1561124e576040517f08c379a00000000000000000000000000000000000000000000000000000000081526004016112459061274b565b60405180910390fd5b61125a60008383611537565b6001600360008473ffffffffffffffffffffffffffffffffffffffff1673ffffffffffffffffffffffffffffffffffffffff16815260200190815260200160002060008282546112aa91906125d1565b92505081905550816002600083815260200190815260200160002060006101000a81548173ffffffffffffffffffffffffffffffffffffffff021916908373ffffffffffffffffffffffffffffffffffffffff160217905550808273ffffffffffffffffffffffffffffffffffffffff16600073ffffffffffffffffffffffffffffffffffffffff167fddf252ad1be2c89b69c2b068fc378daa952ba7f163c4a11628f55a4df523b3ef60405160405180910390a45050565b61136e848484610da8565b61137a8484848461153c565b6113b9576040517f08c379a00000000000000000000000000000000000000000000000000000000081526004016113b0906127dd565b60405180910390fd5b50505050565b606060405180602001604052806000815250905090565b6060600082141561141e576040518060400160405280600181526020017f30000000000000000000000000000000000000000000000000000000000000008152509050611532565b600082905060005b60008214611450578080611439906127fd565b915050600a826114499190612875565b9150611426565b60008167ffffffffffffffff81111561146c5761146b611b21565b5b6040519080825280601f01601f19166020018201604052801561149e5781602001600182028036833780820191505090505b5090505b6000851461152b576001826114b7919061259d565b9150600a856114c691906128a6565b60306114d291906125d1565b60f81b8183815181106114e8576114e76128d7565b5b60200101907effffffffffffffffffffffffffffffffffffffffffffffffffffffffffffff1916908160001a905350600a856115249190612875565b94506114a2565b8093505050505b919050565b505050565b600061155d8473ffffffffffffffffffffffffffffffffffffffff166116c4565b156116b7578373ffffffffffffffffffffffffffffffffffffffff1663150b7a02611586610c09565b8786866040518563ffffffff1660e01b81526004016115a8949392919061295b565b6020604051808303816000875af19250505080156115e457506040513d601f19601f820116820180604052508101906115e191906129bc565b60015b611667573d8060008114611614576040519150601f19603f3d011682016040523d82523d6000602084013e611619565b606091505b5060008151141561165f576040517f08c379a0000000000000000000000000000000000000000000000000000000008152600401611656906127dd565b60405180910390fd5b805181602001fd5b63150b7a0260e01b7bffffffffffffffffffffffffffffffffffffffffffffffffffffffff1916817bffffffffffffffffffffffffffffffffffffffffffffffffffffffff1916149150506116bc565b600190505b949350505050565b600080823b905060008111915050919050565b6000604051905090565b600080fd5b600080fd5b60007fffffffff0000000000000000000000000000000000000000000000000000000082169050919050565b611720816116eb565b811461172b57600080fd5b50565b60008135905061173d81611717565b92915050565b600060208284031215611759576117586116e1565b5b60006117678482850161172e565b91505092915050565b60008115159050919050565b61178581611770565b82525050565b60006020820190506117a0600083018461177c565b92915050565b600081519050919050565b600082825260208201905092915050565b60005b838110156117e05780820151818401526020810190506117c5565b838111156117ef576000848401525b50505050565b6000601f19601f8301169050919050565b6000611811826117a6565b61181b81856117b1565b935061182b8185602086016117c2565b611834816117f5565b840191505092915050565b600060208201905081810360008301526118598184611806565b905092915050565b6000819050919050565b61187481611861565b811461187f57600080fd5b50565b6000813590506118918161186b565b92915050565b6000602082840312156118ad576118ac6116e1565b5b60006118bb84828501611882565b91505092915050565b600073ffffffffffffffffffffffffffffffffffffffff82169050919050565b60006118ef826118c4565b9050919050565b6118ff816118e4565b82525050565b600060208201905061191a60008301846118f6565b92915050565b611929816118e4565b811461193457600080fd5b50565b60008135905061194681611920565b92915050565b60008060408385031215611963576119626116e1565b5b600061197185828601611937565b925050602061198285828601611882565b9150509250929050565b6000806000606084860312156119a5576119a46116e1565b5b60006119b386828701611937565b93505060206119c486828701611937565b92505060406119d586828701611882565b9150509250925092565b6000819050919050565b6000611a046119ff6119fa846118c4565b6119df565b6118c4565b9050919050565b6000611a16826119e9565b9050919050565b6000611a2882611a0b565b9050919050565b611a3881611a1d565b82525050565b6000602082019050611a536000830184611a2f565b92915050565b600060208284031215611a6f57611a6e6116e1565b5b6000611a7d84828501611937565b91505092915050565b611a8f81611861565b82525050565b6000602082019050611aaa6000830184611a86565b92915050565b611ab981611770565b8114611ac457600080fd5b50565b600081359050611ad681611ab0565b92915050565b60008060408385031215611af357611af26116e1565b5b6000611b0185828601611937565b9250506020611b1285828601611ac7565b9150509250929050565b600080fd5b7f4e487b7100000000000000000000000000000000000000000000000000000000600052604160045260246000fd5b611b59826117f5565b810181811067ffffffffffffffff82111715611b7857611b77611b21565b5b80604052505050565b6000611b8b6116d7565b9050611b978282611b50565b919050565b600067ffffffffffffffff821115611bb757611bb6611b21565b5b602082029050919050565b600080fd5b6000611bda611bd584611b9c565b611b81565b90508060208402830185811115611bf457611bf3611bc2565b5b835b81811015611c1d5780611c098882611882565b845260208401935050602081019050611bf6565b5050509392505050565b600082601f830112611c3c57611c3b611b1c565b5b6002611c49848285611bc7565b91505092915050565b600067ffffffffffffffff821115611c6d57611c6c611b21565b5b602082029050919050565b6000611c8b611c8684611c52565b611b81565b90508060408402830185811115611ca557611ca4611bc2565b5b835b81811015611cce5780611cba8882611c27565b845260208401935050604081019050611ca7565b5050509392505050565b600082601f830112611ced57611cec611b1c565b5b6002611cfa848285611c78565b91505092915050565b60008060008060006101408688031215611d2057611d1f6116e1565b5b6000611d2e88828901611c27565b9550506040611d3f88828901611cd8565b94505060c0611d5088828901611c27565b935050610100611d6288828901611882565b925050610120611d7488828901611882565b9150509295509295909350565b600080fd5b600067ffffffffffffffff821115611da157611da0611b21565b5b611daa826117f5565b9050602081019050919050565b82818337600083830152505050565b6000611dd9611dd484611d86565b611b81565b905082815260208101848484011115611df557611df4611d81565b5b611e00848285611db7565b509392505050565b600082601f830112611e1d57611e1c611b1c565b5b8135611e2d848260208601611dc6565b91505092915050565b60008060008060808587031215611e5057611e4f6116e1565b5b6000611e5e87828801611937565b9450506020611e6f87828801611937565b9350506040611e8087828801611882565b925050606085013567ffffffffffffffff811115611ea157611ea06116e6565b5b611ead87828801611e08565b91505092959194509250565b60008060408385031215611ed057611ecf6116e1565b5b6000611ede85828601611937565b9250506020611eef85828601611937565b9150509250929050565b7f4e487b7100000000000000000000000000000000000000000000000000000000600052602260045260246000fd5b60006002820490506001821680611f4057607f821691505b60208210811415611f5457611f53611ef9565b5b50919050565b7f4552433732313a20617070726f76656420717565727920666f72206e6f6e657860008201527f697374656e7420746f6b656e0000000000000000000000000000000000000000602082015250565b6000611fb6602c836117b1565b9150611fc182611f5a565b604082019050919050565b60006020820190508181036000830152611fe581611fa9565b9050919050565b7f4552433732313a20617070726f76616c20746f2063757272656e74206f776e6560008201527f7200000000000000000000000000000000000000000000000000000000000000602082015250565b60006120486021836117b1565b915061205382611fec565b604082019050919050565b600060208201905081810360008301526120778161203b565b9050919050565b7f4552433732313a20617070726f76652063616c6c6572206973206e6f74206f7760008201527f6e6572206e6f7220617070726f76656420666f7220616c6c0000000000000000602082015250565b60006120da6038836117b1565b91506120e58261207e565b604082019050919050565b60006020820190508181036000830152612109816120cd565b9050919050565b7f4552433732313a207472616e736665722063616c6c6572206973206e6f74206f60008201527f776e6572206e6f7220617070726f766564000000000000000000000000000000602082015250565b600061216c6031836117b1565b915061217782612110565b604082019050919050565b6000602082019050818103600083015261219b8161215f565b9050919050565b7f4552433732313a206f776e657220717565727920666f72206e6f6e657869737460008201527f656e7420746f6b656e0000000000000000000000000000000000000000000000602082015250565b60006121fe6029836117b1565b9150612209826121a2565b604082019050919050565b6000602082019050818103600083015261222d816121f1565b9050919050565b7f4552433732313a2062616c616e636520717565727920666f7220746865207a6560008201527f726f206164647265737300000000000000000000000000000000000000000000602082015250565b6000612290602a836117b1565b915061229b82612234565b604082019050919050565b600060208201905081810360008301526122bf81612283565b9050919050565b7f4552433732314d657461646174613a2055524920717565727920666f72206e6f60008201527f6e6578697374656e7420746f6b656e0000000000000000000000000000000000602082015250565b6000612322602f836117b1565b915061232d826122c6565b604082019050919050565b6000602082019050818103600083015261235181612315565b9050919050565b600081905092915050565b600061236e826117a6565b6123788185612358565b93506123888185602086016117c2565b80840191505092915050565b60006123a08285612363565b91506123ac8284612363565b91508190509392505050565b7f4552433732313a206f70657261746f7220717565727920666f72206e6f6e657860008201527f697374656e7420746f6b656e0000000000000000000000000000000000000000602082015250565b6000612414602c836117b1565b915061241f826123b8565b604082019050919050565b6000602082019050818103600083015261244381612407565b9050919050565b7f4552433732313a207472616e73666572206f6620746f6b656e2074686174206960008201527f73206e6f74206f776e0000000000000000000000000000000000000000000000602082015250565b60006124a66029836117b1565b91506124b18261244a565b604082019050919050565b600060208201905081810360008301526124d581612499565b9050919050565b7f4552433732313a207472616e7366657220746f20746865207a65726f2061646460008201527f7265737300000000000000000000000000000000000000000000000000000000602082015250565b60006125386024836117b1565b9150612543826124dc565b604082019050919050565b600060208201905081810360008301526125678161252b565b9050919050565b7f4e487b7100000000000000000000000000000000000000000000000000000000600052601160045260246000fd5b60006125a882611861565b91506125b383611861565b9250828210156125c6576125c561256e565b5b828203905092915050565b60006125dc82611861565b91506125e783611861565b9250827fffffffffffffffffffffffffffffffffffffffffffffffffffffffffffffffff0382111561261c5761261b61256e565b5b828201905092915050565b7f4552433732313a20617070726f766520746f2063616c6c657200000000000000600082015250565b600061265d6019836117b1565b915061266882612627565b602082019050919050565b6000602082019050818103600083015261268c81612650565b9050919050565b7f4552433732313a206d696e7420746f20746865207a65726f2061646472657373600082015250565b60006126c96020836117b1565b91506126d482612693565b602082019050919050565b600060208201905081810360008301526126f8816126bc565b9050919050565b7f4552433732313a20746f6b656e20616c7265616479206d696e74656400000000600082015250565b6000612735601c836117b1565b9150612740826126ff565b602082019050919050565b6000602082019050818103600083015261276481612728565b9050919050565b7f4552433732313a207472616e7366657220746f206e6f6e20455243373231526560008201527f63656976657220696d706c656d656e7465720000000000000000000000000000602082015250565b60006127c76032836117b1565b91506127d28261276b565b604082019050919050565b600060208201905081810360008301526127f6816127ba565b9050919050565b600061280882611861565b91507fffffffffffffffffffffffffffffffffffffffffffffffffffffffffffffffff82141561283b5761283a61256e565b5b600182019050919050565b7f4e487b7100000000000000000000000000000000000000000000000000000000600052601260045260246000fd5b600061288082611861565b915061288b83611861565b92508261289b5761289a612846565b5b828204905092915050565b60006128b182611861565b91506128bc83611861565b9250826128cc576128cb612846565b5b828206905092915050565b7f4e487b7100000000000000000000000000000000000000000000000000000000600052603260045260246000fd5b600081519050919050565b600082825260208201905092915050565b600061292d82612906565b6129378185612911565b93506129478185602086016117c2565b612950816117f5565b840191505092915050565b600060808201905061297060008301876118f6565b61297d60208301866118f6565b61298a6040830185611a86565b818103606083015261299c8184612922565b905095945050505050565b6000815190506129b681611717565b92915050565b6000602082840312156129d2576129d16116e1565b5b60006129e0848285016129a7565b9150509291505056fea2646970667358221220ea7d95a0664a79c9fc8dfa4915f6a465f7642421b47e552b47c3dcf9bde9832264736f6c634300080a0033",
  "linkReferences": {},
  "deployedLinkReferences": {}
}